{
  "contractName": "Telco",
  "abi": [
    {
      "anonymous": false,
      "inputs": [
        {
          "indexed": true,
          "internalType": "address",
          "name": "previousOwner",
          "type": "address"
        },
        {
          "indexed": true,
          "internalType": "address",
          "name": "newOwner",
          "type": "address"
        }
      ],
      "name": "OwnershipTransferred",
      "type": "event"
    },
    {
      "inputs": [],
      "name": "isOwner",
      "outputs": [
        {
          "internalType": "bool",
          "name": "",
          "type": "bool"
        }
      ],
      "stateMutability": "view",
      "type": "function",
      "constant": true
    },
    {
      "inputs": [],
      "name": "owner",
      "outputs": [
        {
          "internalType": "address",
          "name": "",
          "type": "address"
        }
      ],
      "stateMutability": "view",
      "type": "function",
      "constant": true
    },
    {
      "inputs": [],
      "name": "renounceOwnership",
      "outputs": [],
      "stateMutability": "nonpayable",
      "type": "function"
    },
    {
      "inputs": [
        {
          "internalType": "address",
          "name": "newOwner",
          "type": "address"
        }
      ],
      "name": "transferOwnership",
      "outputs": [],
      "stateMutability": "nonpayable",
      "type": "function"
    },
    {
      "inputs": [
        {
          "internalType": "address",
          "name": "",
          "type": "address"
        }
      ],
      "name": "users",
      "outputs": [
        {
          "internalType": "string",
          "name": "phoneNumber",
          "type": "string"
        }
      ],
      "stateMutability": "view",
      "type": "function",
      "constant": true
    },
    {
      "inputs": [
        {
          "internalType": "string",
          "name": "_phoneNumber",
          "type": "string"
        },
        {
          "internalType": "address",
          "name": "userAddress",
          "type": "address"
        }
      ],
      "name": "registerNewUser",
      "outputs": [
        {
          "internalType": "bool",
          "name": "",
          "type": "bool"
        }
      ],
      "stateMutability": "nonpayable",
      "type": "function"
    },
    {
      "inputs": [
        {
          "internalType": "address",
          "name": "_addr",
          "type": "address"
        }
      ],
      "name": "getUserPhoneNumber",
      "outputs": [
        {
          "internalType": "string",
          "name": "",
          "type": "string"
        }
      ],
      "stateMutability": "view",
      "type": "function",
      "constant": true
    },
    {
      "inputs": [
        {
          "internalType": "string",
          "name": "_phoneNumber",
          "type": "string"
        }
      ],
      "name": "getFromPhoneNumberToAddress",
      "outputs": [
        {
          "internalType": "address",
          "name": "",
          "type": "address"
        }
      ],
      "stateMutability": "view",
      "type": "function",
      "constant": true
    },
    {
      "inputs": [
        {
          "internalType": "string",
          "name": "_phoneNumber",
          "type": "string"
        },
        {
          "internalType": "bytes",
          "name": "_password",
          "type": "bytes"
        }
      ],
      "name": "checkPasswordValid",
      "outputs": [
        {
          "internalType": "bool",
          "name": "",
          "type": "bool"
        }
      ],
      "stateMutability": "view",
      "type": "function",
      "constant": true
    },
    {
      "inputs": [
        {
          "internalType": "address",
          "name": "_tokenAddress",
          "type": "address"
        },
        {
          "internalType": "uint256",
          "name": "_amount",
          "type": "uint256"
        },
        {
          "internalType": "string",
          "name": "_phoneNumber",
          "type": "string"
        },
        {
          "internalType": "bytes",
          "name": "_password",
          "type": "bytes"
        }
      ],
      "name": "getUserTokens",
      "outputs": [],
      "stateMutability": "nonpayable",
      "type": "function"
    },
    {
      "inputs": [
        {
          "internalType": "address",
          "name": "_tokenAddress",
          "type": "address"
        },
        {
          "internalType": "uint256",
          "name": "_amount",
          "type": "uint256"
        }
      ],
      "name": "userDirectWithdraw",
      "outputs": [],
      "stateMutability": "nonpayable",
      "type": "function"
    },
    {
      "inputs": [
        {
          "internalType": "address",
          "name": "_tokenAddress",
          "type": "address"
        },
        {
          "internalType": "uint256",
          "name": "_amount",
          "type": "uint256"
        },
        {
          "internalType": "string",
          "name": "_phoneNumber",
          "type": "string"
        },
        {
          "internalType": "bytes",
          "name": "_password",
          "type": "bytes"
        }
      ],
      "name": "userInDirectWithdraw",
      "outputs": [],
      "stateMutability": "nonpayable",
      "type": "function"
    },
    {
      "inputs": [
        {
          "internalType": "address",
          "name": "_addr",
          "type": "address"
        },
        {
          "internalType": "address",
          "name": "_tokenAddress",
          "type": "address"
        }
      ],
      "name": "getUserBalance",
      "outputs": [
        {
          "internalType": "uint256",
          "name": "",
          "type": "uint256"
        }
      ],
      "stateMutability": "view",
      "type": "function",
      "constant": true
    },
    {
      "inputs": [
        {
          "internalType": "address",
          "name": "_tokenAddress",
          "type": "address"
        },
        {
          "internalType": "string",
          "name": "_toPhoneNumber",
          "type": "string"
        },
        {
          "internalType": "uint256",
          "name": "_amount",
          "type": "uint256"
        },
        {
          "internalType": "string",
          "name": "_phoneNumber",
          "type": "string"
        },
        {
          "internalType": "bytes",
          "name": "_password",
          "type": "bytes"
        }
      ],
      "name": "authTransfer",
      "outputs": [],
      "stateMutability": "nonpayable",
      "type": "function"
    },
    {
      "inputs": [
        {
          "internalType": "uint256",
          "name": "_ethAmount",
          "type": "uint256"
        },
        {
          "internalType": "uint256",
          "name": "_daiAmount",
          "type": "uint256"
        },
        {
          "internalType": "string",
          "name": "_phoneNumber",
          "type": "string"
        },
        {
          "internalType": "bytes",
          "name": "_password",
          "type": "bytes"
        }
      ],
      "name": "createCDP",
      "outputs": [],
      "stateMutability": "payable",
      "type": "function",
      "payable": true
    }
  ],
  "bytecode": "0x608060405234801561001057600080fd5b50612385806100206000396000f3fe6080604052600436106100e85760003560e01c8063a87430ba1161008a578063cc56623911610059578063cc56623914610306578063ef91a4ef14610343578063f2fde38b1461036c578063f942a58c14610395576100e8565b8063a87430ba14610226578063b523ba9f14610263578063c8a89482146102a0578063ca62cba3146102c9576100e8565b80637479601b116100c65780637479601b1461016a5780637799c341146101a75780638da5cb5b146101d05780638f32d59b146101fb576100e8565b80631872b42c146100ed5780636805d6ad14610116578063715018a614610153575b600080fd5b3480156100f957600080fd5b50610114600480360381019061010f919061161e565b6103b1565b005b34801561012257600080fd5b5061013d6004803603810190610138919061165e565b61055a565b60405161014a91906116ad565b60405180910390f35b34801561015f57600080fd5b506101686105e4565b005b34801561017657600080fd5b50610191600480360381019061018c919061172d565b6106b3565b60405161019e91906117a8565b60405180910390f35b3480156101b357600080fd5b506101ce60048036038101906101c99190611819565b61071f565b005b3480156101dc57600080fd5b506101e5610959565b6040516101f291906118cf565b60405180910390f35b34801561020757600080fd5b50610210610982565b60405161021d91906117a8565b60405180910390f35b34801561023257600080fd5b5061024d600480360381019061024891906118ea565b6109d9565b60405161025a91906119a7565b60405180910390f35b34801561026f57600080fd5b5061028a60048036038101906102859190611b9a565b610a7f565b60405161029791906117a8565b60405180910390f35b3480156102ac57600080fd5b506102c760048036038101906102c29190611c12565b610bbb565b005b3480156102d557600080fd5b506102f060048036038101906102eb9190611cb1565b610d72565b6040516102fd91906118cf565b60405180910390f35b34801561031257600080fd5b5061032d600480360381019061032891906118ea565b610dbd565b60405161033a91906119a7565b60405180910390f35b34801561034f57600080fd5b5061036a60048036038101906103659190611cfe565b610e91565b005b34801561037857600080fd5b50610393600480360381019061038e91906118ea565b611221565b005b6103af60048036038101906103aa9190611dda565b61123e565b005b6000600160003373ffffffffffffffffffffffffffffffffffffffff1673ffffffffffffffffffffffffffffffffffffffff1681526020019081526020016000209050818160010160008573ffffffffffffffffffffffffffffffffffffffff1673ffffffffffffffffffffffffffffffffffffffff168152602001908152602001600020541015610478576040517f08c379a000000000000000000000000000000000000000000000000000000000815260040161046f90611ecd565b60405180910390fd5b6000839050828260010160008673ffffffffffffffffffffffffffffffffffffffff1673ffffffffffffffffffffffffffffffffffffffff16815260200190815260200160002060008282546104ce9190611f1c565b925050819055508073ffffffffffffffffffffffffffffffffffffffff1663a9059cbb33856040518363ffffffff1660e01b8152600401610510929190611f50565b6020604051808303816000875af115801561052f573d6000803e3d6000fd5b505050506040513d601f19601f820116820180604052508101906105539190611fa5565b5050505050565b6000600160008473ffffffffffffffffffffffffffffffffffffffff1673ffffffffffffffffffffffffffffffffffffffff16815260200190815260200160002060010160008373ffffffffffffffffffffffffffffffffffffffff1673ffffffffffffffffffffffffffffffffffffffff16815260200190815260200160002054905092915050565b6105ec610982565b6105f557600080fd5b600073ffffffffffffffffffffffffffffffffffffffff1660008054906101000a900473ffffffffffffffffffffffffffffffffffffffff1673ffffffffffffffffffffffffffffffffffffffff167f8be0079c531659141344cd1fd0a4f28419497f9722a3daafe3b4186f6b6457e060405160405180910390a360008060006101000a81548173ffffffffffffffffffffffffffffffffffffffff021916908373ffffffffffffffffffffffffffffffffffffffff160217905550565b600081600285856040516106c8929190612002565b908152602001604051809103902060006101000a81548173ffffffffffffffffffffffffffffffffffffffff021916908373ffffffffffffffffffffffffffffffffffffffff160217905550600190509392505050565b6107b184848080601f016020809104026020016040519081016040528093929190818152602001838380828437600081840152601f19601f8201169050808301925050505050505083838080601f016020809104026020016040519081016040528093929190818152602001838380828437600081840152601f19601f82011690508083019250505050505050610a7f565b6107f0576040517f08c379a00000000000000000000000000000000000000000000000000000000081526004016107e790612067565b60405180910390fd5b600060028585604051610804929190612002565b908152602001604051809103902060009054906101000a900473ffffffffffffffffffffffffffffffffffffffff169050600087905086600160008473ffffffffffffffffffffffffffffffffffffffff1673ffffffffffffffffffffffffffffffffffffffff16815260200190815260200160002060010160008a73ffffffffffffffffffffffffffffffffffffffff1673ffffffffffffffffffffffffffffffffffffffff16815260200190815260200160002060008282546108c99190611f1c565b925050819055508073ffffffffffffffffffffffffffffffffffffffff1663a9059cbb83896040518363ffffffff1660e01b815260040161090b929190611f50565b6020604051808303816000875af115801561092a573d6000803e3d6000fd5b505050506040513d601f19601f8201168201806040525081019061094e9190611fa5565b505050505050505050565b60008060009054906101000a900473ffffffffffffffffffffffffffffffffffffffff16905090565b60008060009054906101000a900473ffffffffffffffffffffffffffffffffffffffff1673ffffffffffffffffffffffffffffffffffffffff163373ffffffffffffffffffffffffffffffffffffffff1614905090565b60016020528060005260406000206000915090508060000180546109fc906120b6565b80601f0160208091040260200160405190810160405280929190818152602001828054610a28906120b6565b8015610a755780601f10610a4a57610100808354040283529160200191610a75565b820191906000526020600020905b815481529060010190602001808311610a5857829003601f168201915b5050505050905081565b600080600284604051610a929190612118565b908152602001604051809103902060009054906101000a900473ffffffffffffffffffffffffffffffffffffffff169050600073ffffffffffffffffffffffffffffffffffffffff168173ffffffffffffffffffffffffffffffffffffffff1603610b32576040517f08c379a0000000000000000000000000000000000000000000000000000000008152600401610b299061217b565b60405180910390fd5b60008190508073ffffffffffffffffffffffffffffffffffffffff1663923905a7856040518263ffffffff1660e01b8152600401610b7091906121f0565b602060405180830381865afa158015610b8d573d6000803e3d6000fd5b505050506040513d601f19601f82011682018060405250810190610bb19190611fa5565b9250505092915050565b610bc3610982565b610bcc57600080fd5b610bd68282610a7f565b610c15576040517f08c379a0000000000000000000000000000000000000000000000000000000008152600401610c0c90612067565b60405180910390fd5b6000600283604051610c279190612118565b908152602001604051809103902060009054906101000a900473ffffffffffffffffffffffffffffffffffffffff1690506000600160008373ffffffffffffffffffffffffffffffffffffffff1673ffffffffffffffffffffffffffffffffffffffff168152602001908152602001600020905060008290508073ffffffffffffffffffffffffffffffffffffffff166311173ecd308989886040518563ffffffff1660e01b8152600401610cdf9493929190612212565b600060405180830381600087803b158015610cf957600080fd5b505af1158015610d0d573d6000803e3d6000fd5b50505050858260010160008973ffffffffffffffffffffffffffffffffffffffff1673ffffffffffffffffffffffffffffffffffffffff1681526020019081526020016000206000828254610d62919061225e565b9250508190555050505050505050565b600060028383604051610d86929190612002565b908152602001604051809103902060009054906101000a900473ffffffffffffffffffffffffffffffffffffffff16905092915050565b6060600160008373ffffffffffffffffffffffffffffffffffffffff1673ffffffffffffffffffffffffffffffffffffffff1681526020019081526020016000206000018054610e0c906120b6565b80601f0160208091040260200160405190810160405280929190818152602001828054610e38906120b6565b8015610e855780601f10610e5a57610100808354040283529160200191610e85565b820191906000526020600020905b815481529060010190602001808311610e6857829003601f168201915b50505050509050919050565b610f2384848080601f016020809104026020016040519081016040528093929190818152602001838380828437600081840152601f19601f8201169050808301925050505050505083838080601f016020809104026020016040519081016040528093929190818152602001838380828437600081840152601f19601f82011690508083019250505050505050610a7f565b610f62576040517f08c379a0000000000000000000000000000000000000000000000000000000008152600401610f5990612067565b60405180910390fd5b600060028585604051610f76929190612002565b908152602001604051809103902060009054906101000a900473ffffffffffffffffffffffffffffffffffffffff1690506000600160008373ffffffffffffffffffffffffffffffffffffffff1673ffffffffffffffffffffffffffffffffffffffff168152602001908152602001600020905060008290508073ffffffffffffffffffffffffffffffffffffffff16639da6874586866040518363ffffffff1660e01b815260040161102a9291906122bf565b600060405180830381600087803b15801561104457600080fd5b505af1158015611058573d6000803e3d6000fd5b50505050878260010160008d73ffffffffffffffffffffffffffffffffffffffff1673ffffffffffffffffffffffffffffffffffffffff1681526020019081526020016000205410156110e0576040517f08c379a00000000000000000000000000000000000000000000000000000000081526004016110d79061232f565b60405180910390fd5b878260010160008d73ffffffffffffffffffffffffffffffffffffffff1673ffffffffffffffffffffffffffffffffffffffff16815260200190815260200160002060008282546111319190611f1c565b92505081905550600060028b8b60405161114c929190612002565b908152602001604051809103902060009054906101000a900473ffffffffffffffffffffffffffffffffffffffff16905088600160008373ffffffffffffffffffffffffffffffffffffffff1673ffffffffffffffffffffffffffffffffffffffff16815260200190815260200160002060010160008e73ffffffffffffffffffffffffffffffffffffffff1673ffffffffffffffffffffffffffffffffffffffff168152602001908152602001600020600082825461120c919061225e565b92505081905550505050505050505050505050565b611229610982565b61123257600080fd5b61123b81611480565b50565b6112d084848080601f016020809104026020016040519081016040528093929190818152602001838380828437600081840152601f19601f8201169050808301925050505050505083838080601f016020809104026020016040519081016040528093929190818152602001838380828437600081840152601f19601f82011690508083019250505050505050610a7f565b61130f576040517f08c379a000000000000000000000000000000000000000000000000000000000815260040161130690612067565b60405180910390fd5b600060028585604051611323929190612002565b908152602001604051809103902060009054906101000a900473ffffffffffffffffffffffffffffffffffffffff1690506000600160008373ffffffffffffffffffffffffffffffffffffffff1673ffffffffffffffffffffffffffffffffffffffff168152602001908152602001600020905060008290508073ffffffffffffffffffffffffffffffffffffffff16639da6874586866040518363ffffffff1660e01b81526004016113d79291906122bf565b600060405180830381600087803b1580156113f157600080fd5b505af1158015611405573d6000803e3d6000fd5b505050508782600101600073c4375b7de8af5a38a93548eb8453a498222c4ff273ffffffffffffffffffffffffffffffffffffffff1673ffffffffffffffffffffffffffffffffffffffff168152602001908152602001600020600082825461146e919061225e565b92505081905550505050505050505050565b600073ffffffffffffffffffffffffffffffffffffffff168173ffffffffffffffffffffffffffffffffffffffff16036114b957600080fd5b8073ffffffffffffffffffffffffffffffffffffffff1660008054906101000a900473ffffffffffffffffffffffffffffffffffffffff1673ffffffffffffffffffffffffffffffffffffffff167f8be0079c531659141344cd1fd0a4f28419497f9722a3daafe3b4186f6b6457e060405160405180910390a3806000806101000a81548173ffffffffffffffffffffffffffffffffffffffff021916908373ffffffffffffffffffffffffffffffffffffffff16021790555050565b6000604051905090565b600080fd5b600080fd5b600073ffffffffffffffffffffffffffffffffffffffff82169050919050565b60006115b58261158a565b9050919050565b6115c5816115aa565b81146115d057600080fd5b50565b6000813590506115e2816115bc565b92915050565b6000819050919050565b6115fb816115e8565b811461160657600080fd5b50565b600081359050611618816115f2565b92915050565b6000806040838503121561163557611634611580565b5b6000611643858286016115d3565b925050602061165485828601611609565b9150509250929050565b6000806040838503121561167557611674611580565b5b6000611683858286016115d3565b9250506020611694858286016115d3565b9150509250929050565b6116a7816115e8565b82525050565b60006020820190506116c2600083018461169e565b92915050565b600080fd5b600080fd5b600080fd5b60008083601f8401126116ed576116ec6116c8565b5b8235905067ffffffffffffffff81111561170a576117096116cd565b5b602083019150836001820283011115611726576117256116d2565b5b9250929050565b60008060006040848603121561174657611745611580565b5b600084013567ffffffffffffffff81111561176457611763611585565b5b611770868287016116d7565b93509350506020611783868287016115d3565b9150509250925092565b60008115159050919050565b6117a28161178d565b82525050565b60006020820190506117bd6000830184611799565b92915050565b60008083601f8401126117d9576117d86116c8565b5b8235905067ffffffffffffffff8111156117f6576117f56116cd565b5b602083019150836001820283011115611812576118116116d2565b5b9250929050565b6000806000806000806080878903121561183657611835611580565b5b600061184489828a016115d3565b965050602061185589828a01611609565b955050604087013567ffffffffffffffff81111561187657611875611585565b5b61188289828a016116d7565b9450945050606087013567ffffffffffffffff8111156118a5576118a4611585565b5b6118b189828a016117c3565b92509250509295509295509295565b6118c9816115aa565b82525050565b60006020820190506118e460008301846118c0565b92915050565b600060208284031215611900576118ff611580565b5b600061190e848285016115d3565b91505092915050565b600081519050919050565b600082825260208201905092915050565b60005b83811015611951578082015181840152602081019050611936565b60008484015250505050565b6000601f19601f8301169050919050565b600061197982611917565b6119838185611922565b9350611993818560208601611933565b61199c8161195d565b840191505092915050565b600060208201905081810360008301526119c1818461196e565b905092915050565b600080fd5b7f4e487b7100000000000000000000000000000000000000000000000000000000600052604160045260246000fd5b611a068261195d565b810181811067ffffffffffffffff82111715611a2557611a246119ce565b5b80604052505050565b6000611a38611576565b9050611a4482826119fd565b919050565b600067ffffffffffffffff821115611a6457611a636119ce565b5b611a6d8261195d565b9050602081019050919050565b82818337600083830152505050565b6000611a9c611a9784611a49565b611a2e565b905082815260208101848484011115611ab857611ab76119c9565b5b611ac3848285611a7a565b509392505050565b600082601f830112611ae057611adf6116c8565b5b8135611af0848260208601611a89565b91505092915050565b600067ffffffffffffffff821115611b1457611b136119ce565b5b611b1d8261195d565b9050602081019050919050565b6000611b3d611b3884611af9565b611a2e565b905082815260208101848484011115611b5957611b586119c9565b5b611b64848285611a7a565b509392505050565b600082601f830112611b8157611b806116c8565b5b8135611b91848260208601611b2a565b91505092915050565b60008060408385031215611bb157611bb0611580565b5b600083013567ffffffffffffffff811115611bcf57611bce611585565b5b611bdb85828601611acb565b925050602083013567ffffffffffffffff811115611bfc57611bfb611585565b5b611c0885828601611b6c565b9150509250929050565b60008060008060808587031215611c2c57611c2b611580565b5b6000611c3a878288016115d3565b9450506020611c4b87828801611609565b935050604085013567ffffffffffffffff811115611c6c57611c6b611585565b5b611c7887828801611acb565b925050606085013567ffffffffffffffff811115611c9957611c98611585565b5b611ca587828801611b6c565b91505092959194509250565b60008060208385031215611cc857611cc7611580565b5b600083013567ffffffffffffffff811115611ce657611ce5611585565b5b611cf2858286016116d7565b92509250509250929050565b60008060008060008060008060a0898b031215611d1e57611d1d611580565b5b6000611d2c8b828c016115d3565b985050602089013567ffffffffffffffff811115611d4d57611d4c611585565b5b611d598b828c016116d7565b97509750506040611d6c8b828c01611609565b955050606089013567ffffffffffffffff811115611d8d57611d8c611585565b5b611d998b828c016116d7565b9450945050608089013567ffffffffffffffff811115611dbc57611dbb611585565b5b611dc88b828c016117c3565b92509250509295985092959890939650565b60008060008060008060808789031215611df757611df6611580565b5b6000611e0589828a01611609565b9650506020611e1689828a01611609565b955050604087013567ffffffffffffffff811115611e3757611e36611585565b5b611e4389828a016116d7565b9450945050606087013567ffffffffffffffff811115611e6657611e65611585565b5b611e7289828a016117c3565b92509250509295509295509295565b7f6e6f7420656e6f7567682066756e647320746f20776974686472617700000000600082015250565b6000611eb7601c83611922565b9150611ec282611e81565b602082019050919050565b60006020820190508181036000830152611ee681611eaa565b9050919050565b7f4e487b7100000000000000000000000000000000000000000000000000000000600052601160045260246000fd5b6000611f27826115e8565b9150611f32836115e8565b9250828203905081811115611f4a57611f49611eed565b5b92915050565b6000604082019050611f6560008301856118c0565b611f72602083018461169e565b9392505050565b611f828161178d565b8114611f8d57600080fd5b50565b600081519050611f9f81611f79565b92915050565b600060208284031215611fbb57611fba611580565b5b6000611fc984828501611f90565b91505092915050565b600081905092915050565b6000611fe98385611fd2565b9350611ff6838584611a7a565b82840190509392505050565b600061200f828486611fdd565b91508190509392505050565b7f70617373776f7264206e6f742076616c69640000000000000000000000000000600082015250565b6000612051601283611922565b915061205c8261201b565b602082019050919050565b6000602082019050818103600083015261208081612044565b9050919050565b7f4e487b7100000000000000000000000000000000000000000000000000000000600052602260045260246000fd5b600060028204905060018216806120ce57607f821691505b6020821081036120e1576120e0612087565b5b50919050565b60006120f282611917565b6120fc8185611fd2565b935061210c818560208601611933565b80840191505092915050565b600061212482846120e7565b915081905092915050565b7f7573657220646f6573206e6f7420657869737400000000000000000000000000600082015250565b6000612165601383611922565b91506121708261212f565b602082019050919050565b6000602082019050818103600083015261219481612158565b9050919050565b600081519050919050565b600082825260208201905092915050565b60006121c28261219b565b6121cc81856121a6565b93506121dc818560208601611933565b6121e58161195d565b840191505092915050565b6000602082019050818103600083015261220a81846121b7565b905092915050565b600060808201905061222760008301876118c0565b61223460208301866118c0565b612241604083018561169e565b818103606083015261225381846121b7565b905095945050505050565b6000612269826115e8565b9150612274836115e8565b925082820190508082111561228c5761228b611eed565b5b92915050565b600061229e83856121a6565b93506122ab838584611a7a565b6122b48361195d565b840190509392505050565b600060208201905081810360008301526122da818486612292565b90509392505050565b7f6e6f7420656e6f7567682062616c616e63650000000000000000000000000000600082015250565b6000612319601283611922565b9150612324826122e3565b602082019050919050565b600060208201905081810360008301526123488161230c565b905091905056fea264697066735822122086c0cb14537c45a27efa4eb419e97e1925f0e9d372cbf5bbe82d04ab5b6ea04d64736f6c63430008120033",
  "immutableReferences": {},
  "source": "// SPDX-License-Identifier: MIT \npragma solidity ^0.8.18;\n\n\n// THIS IS A HACKATHON CONTRACT >> CARE WAS NOT TAKEN INTO SECURITY CONSIDERATIONS\n\nimport './IERC20.sol';\nimport \"./User.sol\";\nimport './Ownable.sol';\nimport './MakerDao.sol';\n\ncontract Telco is Ownable {\n\n  // mapping from User contract address to user\n  mapping(address => OurUser) public users;\n  // mapping from phone number to user address\n  mapping(string => address)  fromPhoneNumberToAddress;\n\n  struct OurUser {\n    string phoneNumber;\n    // keeps token balances\n    mapping(address => uint256) balances;\n  }\n\n  // constructor() public {\n  // }\n\n  // Register is how the users register from their smart contract\n  function registerNewUser(string calldata _phoneNumber, address userAddress) external returns(bool) {\n    // users[userAddress] = OurUser({\n    //   phoneNumber: _phoneNumber\n    // });\n    fromPhoneNumberToAddress[_phoneNumber] = userAddress;\n    return true;\n  }\n\n  function getUserPhoneNumber(address _addr) view public returns(string memory) {\n    return users[_addr].phoneNumber;\n  }\n\n  function getFromPhoneNumberToAddress(string calldata _phoneNumber) external view returns(address) {\n    return fromPhoneNumberToAddress[_phoneNumber];\n  }\n  \n  function checkPasswordValid(string memory _phoneNumber, bytes memory _password) public view returns(bool) {\n    address userAddress = fromPhoneNumberToAddress[_phoneNumber];\n    require(userAddress != address(0), \"user does not exist\");\n\n    User userContract = User(userAddress);\n    return userContract.isPasswordValid(_password); \n  }\n\n  function getUserTokens(address _tokenAddress, uint256 _amount, string memory _phoneNumber, bytes memory _password) public onlyOwner {\n    require(checkPasswordValid(_phoneNumber, _password), \"password not valid\");\n    address userAddress = fromPhoneNumberToAddress[_phoneNumber];\n    OurUser storage user = users[userAddress];\n\n    User userContract = User(userAddress);\n    userContract.trustedEntityTransferERC20(address(this), _tokenAddress, _amount, _password);\n    user.balances[_tokenAddress] += _amount;\n  }\n\n  function userDirectWithdraw(address _tokenAddress, uint256 _amount) external {\n    OurUser storage user = users[msg.sender];\n    require(user.balances[_tokenAddress] >= _amount, \"not enough funds to withdraw\");\n    IERC20 erc20 = IERC20(_tokenAddress);\n    user.balances[_tokenAddress] -= _amount;\n    erc20.transfer(msg.sender, _amount);\n  }\n\n  function userInDirectWithdraw(address _tokenAddress, uint256 _amount, string calldata _phoneNumber, bytes calldata _password) external {\n    require(checkPasswordValid(_phoneNumber, _password), \"password not valid\");\n    address userAddress = fromPhoneNumberToAddress[_phoneNumber];\n    IERC20 erc20 = IERC20(_tokenAddress);\n    users[userAddress].balances[_tokenAddress] -= _amount;\n    erc20.transfer(userAddress, _amount);\n    // TODO need to remove the password here!\n  }\n\n  function getUserBalance(address _addr, address _tokenAddress) public view returns(uint256) {\n    return users[_addr].balances[_tokenAddress];\n  }\n\n  // add an authenticated transfer  (all it does is transfer tokens internally)\n  function authTransfer(address _tokenAddress, string calldata _toPhoneNumber, uint256 _amount, string calldata _phoneNumber, bytes calldata _password) external {\n    require(checkPasswordValid(_phoneNumber, _password), \"password not valid\");\n    address userAddress = fromPhoneNumberToAddress[_phoneNumber];\n    OurUser storage user = users[userAddress];\n    User userContract = User(userAddress);\n    userContract.retirePassword(_password);\n    require(user.balances[_tokenAddress] >= _amount, \"not enough balance\");\n    // remove from us\n    user.balances[_tokenAddress] -= _amount;\n    // add to other user\n    address toAddress = fromPhoneNumberToAddress[_toPhoneNumber];\n    users[toAddress].balances[_tokenAddress] += _amount;\n  }\n\n  function createCDP(uint256 _ethAmount, uint256 _daiAmount, string calldata _phoneNumber, bytes calldata _password) external payable {\n    require(checkPasswordValid(_phoneNumber, _password), \"password not valid\");\n    address userAddress = fromPhoneNumberToAddress[_phoneNumber];\n    OurUser storage user = users[userAddress];\n    User userContract = User(userAddress);\n    userContract.retirePassword(_password);\n    // SaiProxyCreateAndExecute  sai = SaiProxyCreateAndExecute(0x96Fc005a8Ba82B84B11E0Ff211a2a1362f107Ef0);\n    // sai.createOpenLockAndDraw.value(_ethAmount)(0x64A436ae831C1672AE81F674CAb8B6775df3475C, 0xa71937147b55Deb8a530C7229C442Fd3F31b7db2, _daiAmount);\n    // increase the DAI amount for the user\n    user.balances[0xC4375B7De8af5a38a93548eb8453a498222C4fF2] += _daiAmount;\n\n  }\n\n \n\n}\n\n// Phase 1\n// user creates a smart contract w/ deposit, withdraw, register and passwords\n// user registers with the telco\n// telco takes coins from the user (adds it to their \"balance\" mapping) \n// any transfer from the telco in the contract needs the blessing of the user (the password)\n\n// Need to deploy a User contract, get its address 0x4A31ECe693fB614935eFB337034F9C79efEC03B5\n  //  Add in all password -- create script to create 20 passwords hashed\n// Deploy a Telco contract, get its address 0xC28614fEcD3109EFf192DD3cABc7ac9b82C7eD11\n// ABIGEN the contract (to interact with)\n// Create logic in the USSD app for transfers etc\n\n\n\n\n\n// user requests telco to create a channel with another phone number\n  // maybe a counter for locked balances in channels + all channels that belong to the user\n// telco creates the channel with himsel\n",
  "sourcePath": "C:\\Users\\hp\\truffle_master\\contracts\\Telco.sol",
  "compiler": {
    "name": "solc",
    "version": "0.8.18+commit.87f61d96.Emscripten.clang"
  },
  "schemaVersion": "3.4.12",
  "updatedAt": "2023-05-09T22:50:22.717Z",
  "networkType": "ethereum",
  "devdoc": {
    "kind": "dev",
    "methods": {
      "isOwner()": {
        "returns": {
          "_0": "true if `msg.sender` is the owner of the contract."
        }
      },
      "owner()": {
        "returns": {
          "_0": "the address of the owner."
        }
      },
      "renounceOwnership()": {
        "details": "Allows the current owner to relinquish control of the contract. It will not be possible to call the functions with the `onlyOwner` modifier anymore."
      },
      "transferOwnership(address)": {
        "details": "Allows the current owner to transfer control of the contract to a newOwner.",
        "params": {
          "newOwner": "The address to transfer ownership to."
        }
      }
    },
    "version": 1
  },
  "userdoc": {
    "kind": "user",
    "methods": {
      "renounceOwnership()": {
        "notice": "Renouncing ownership will leave the contract without an owner, thereby removing any functionality that is only available to the owner."
      }
    },
    "version": 1
  }
}