{
  "contractName": "User",
  "abi": [
    {
      "anonymous": false,
      "inputs": [
        {
          "indexed": true,
          "internalType": "address",
          "name": "previousOwner",
          "type": "address"
        },
        {
          "indexed": true,
          "internalType": "address",
          "name": "newOwner",
          "type": "address"
        }
      ],
      "name": "OwnershipTransferred",
      "type": "event"
    },
    {
      "inputs": [],
      "name": "isOwner",
      "outputs": [
        {
          "internalType": "bool",
          "name": "",
          "type": "bool"
        }
      ],
      "stateMutability": "view",
      "type": "function",
      "constant": true
    },
    {
      "inputs": [],
      "name": "name",
      "outputs": [
        {
          "internalType": "string",
          "name": "",
          "type": "string"
        }
      ],
      "stateMutability": "view",
      "type": "function",
      "constant": true
    },
    {
      "inputs": [],
      "name": "owner",
      "outputs": [
        {
          "internalType": "address",
          "name": "",
          "type": "address"
        }
      ],
      "stateMutability": "view",
      "type": "function",
      "constant": true
    },
    {
      "inputs": [
        {
          "internalType": "bytes32",
          "name": "",
          "type": "bytes32"
        }
      ],
      "name": "passwords",
      "outputs": [
        {
          "internalType": "bool",
          "name": "",
          "type": "bool"
        }
      ],
      "stateMutability": "view",
      "type": "function",
      "constant": true
    },
    {
      "inputs": [],
      "name": "phoneNumber",
      "outputs": [
        {
          "internalType": "string",
          "name": "",
          "type": "string"
        }
      ],
      "stateMutability": "view",
      "type": "function",
      "constant": true
    },
    {
      "inputs": [],
      "name": "renounceOwnership",
      "outputs": [],
      "stateMutability": "nonpayable",
      "type": "function"
    },
    {
      "inputs": [],
      "name": "totalPasswordsLeft",
      "outputs": [
        {
          "internalType": "uint256",
          "name": "",
          "type": "uint256"
        }
      ],
      "stateMutability": "view",
      "type": "function",
      "constant": true
    },
    {
      "inputs": [
        {
          "internalType": "address",
          "name": "newOwner",
          "type": "address"
        }
      ],
      "name": "transferOwnership",
      "outputs": [],
      "stateMutability": "nonpayable",
      "type": "function"
    },
    {
      "inputs": [
        {
          "internalType": "address",
          "name": "",
          "type": "address"
        }
      ],
      "name": "trustedEntities",
      "outputs": [
        {
          "internalType": "bool",
          "name": "",
          "type": "bool"
        }
      ],
      "stateMutability": "view",
      "type": "function",
      "constant": true
    },
    {
      "inputs": [
        {
          "internalType": "bytes32[]",
          "name": "_hashedPasswords",
          "type": "bytes32[]"
        }
      ],
      "name": "addPasswords",
      "outputs": [],
      "stateMutability": "nonpayable",
      "type": "function"
    },
    {
      "inputs": [
        {
          "internalType": "bytes",
          "name": "_password",
          "type": "bytes"
        }
      ],
      "name": "isPasswordValid",
      "outputs": [
        {
          "internalType": "bool",
          "name": "",
          "type": "bool"
        }
      ],
      "stateMutability": "view",
      "type": "function",
      "constant": true
    },
    {
      "inputs": [
        {
          "internalType": "address",
          "name": "_to",
          "type": "address"
        },
        {
          "internalType": "uint256",
          "name": "_amount",
          "type": "uint256"
        }
      ],
      "name": "transferEth",
      "outputs": [],
      "stateMutability": "payable",
      "type": "function",
      "payable": true
    },
    {
      "inputs": [
        {
          "internalType": "address",
          "name": "_to",
          "type": "address"
        },
        {
          "internalType": "address",
          "name": "_erc20Address",
          "type": "address"
        },
        {
          "internalType": "uint256",
          "name": "_amount",
          "type": "uint256"
        }
      ],
      "name": "transferERC20",
      "outputs": [],
      "stateMutability": "nonpayable",
      "type": "function"
    },
    {
      "inputs": [
        {
          "internalType": "address",
          "name": "_trustedEntity",
          "type": "address"
        }
      ],
      "name": "addTrustedEntity",
      "outputs": [],
      "stateMutability": "nonpayable",
      "type": "function"
    },
    {
      "inputs": [
        {
          "internalType": "address",
          "name": "_trustedEntity",
          "type": "address"
        }
      ],
      "name": "removeTrustedEntity",
      "outputs": [],
      "stateMutability": "nonpayable",
      "type": "function"
    },
    {
      "inputs": [
        {
          "internalType": "address",
          "name": "_to",
          "type": "address"
        },
        {
          "internalType": "uint256",
          "name": "_amount",
          "type": "uint256"
        },
        {
          "internalType": "bytes",
          "name": "_password",
          "type": "bytes"
        }
      ],
      "name": "trustedEntityTransferEth",
      "outputs": [],
      "stateMutability": "payable",
      "type": "function",
      "payable": true
    },
    {
      "inputs": [
        {
          "internalType": "bytes",
          "name": "_password",
          "type": "bytes"
        }
      ],
      "name": "retirePassword",
      "outputs": [],
      "stateMutability": "nonpayable",
      "type": "function"
    },
    {
      "inputs": [
        {
          "internalType": "address",
          "name": "_to",
          "type": "address"
        },
        {
          "internalType": "address",
          "name": "_erc20Address",
          "type": "address"
        },
        {
          "internalType": "uint256",
          "name": "_amount",
          "type": "uint256"
        },
        {
          "internalType": "bytes",
          "name": "_password",
          "type": "bytes"
        }
      ],
      "name": "trustedEntityTransferERC20",
      "outputs": [],
      "stateMutability": "nonpayable",
      "type": "function"
    }
  ],
  "bytecode": "0x608060405234801561001057600080fd5b506117ce806100206000396000f3fe6080604052600436106101095760003560e01c80638f32d59b11610095578063db73012b11610064578063db73012b14610334578063dea612d414610371578063e9bb84c21461039a578063ef9428d1146103b6578063f2fde38b146103e157610109565b80638f32d59b1461027a578063923905a7146102a55780639da68745146102e25780639db5dbe41461030b57610109565b806340076c3d116100dc57806340076c3d146101c85780635168bf3e146101e4578063715018a61461020d578063747f3380146102245780638da5cb5b1461024f57610109565b806306fdde031461010e57806311173ecd1461013957806334c9cab8146101625780633feb3c4f1461019f575b600080fd5b34801561011a57600080fd5b5061012361040a565b6040516101309190610e6c565b60405180910390f35b34801561014557600080fd5b50610160600480360381019061015b919061106b565b610498565b005b34801561016e57600080fd5b5061018960048036038101906101849190611124565b610698565b604051610196919061116c565b60405180910390f35b3480156101ab57600080fd5b506101c660048036038101906101c1919061124f565b6106b8565b005b6101e260048036038101906101dd9190611298565b61074c565b005b3480156101f057600080fd5b5061020b60048036038101906102069190611307565b610888565b005b34801561021957600080fd5b506102226108f4565b005b34801561023057600080fd5b506102396109c3565b6040516102469190610e6c565b60405180910390f35b34801561025b57600080fd5b50610264610a51565b6040516102719190611343565b60405180910390f35b34801561028657600080fd5b5061028f610a7a565b60405161029c919061116c565b60405180910390f35b3480156102b157600080fd5b506102cc60048036038101906102c7919061135e565b610ad1565b6040516102d9919061116c565b60405180910390f35b3480156102ee57600080fd5b506103096004803603810190610304919061135e565b610b02565b005b34801561031757600080fd5b50610332600480360381019061032d91906113a7565b610b49565b005b34801561034057600080fd5b5061035b60048036038101906103569190611307565b610c22565b604051610368919061116c565b60405180910390f35b34801561037d57600080fd5b5061039860048036038101906103939190611307565b610c42565b005b6103b460048036038101906103af91906113fa565b610cae565b005b3480156103c257600080fd5b506103cb610cc3565b6040516103d89190611449565b60405180910390f35b3480156103ed57600080fd5b5061040860048036038101906104039190611307565b610cc9565b005b6002805461041790611493565b80601f016020809104026020016040519081016040528092919081815260200182805461044390611493565b80156104905780601f1061046557610100808354040283529160200191610490565b820191906000526020600020905b81548152906001019060200180831161047357829003601f168201915b505050505081565b600560003373ffffffffffffffffffffffffffffffffffffffff1673ffffffffffffffffffffffffffffffffffffffff16815260200190815260200160002060009054906101000a900460ff16610524576040517f08c379a000000000000000000000000000000000000000000000000000000000815260040161051b90611510565b60405180910390fd5b600460008280519060200120815260200190815260200160002060009054906101000a900460ff1661058b576040517f08c379a00000000000000000000000000000000000000000000000000000000081526004016105829061157c565b60405180910390fd5b600460008280519060200120815260200190815260200160002060006101000a81549060ff02191690556001600360008282546105c891906115cb565b9250508190555060008390508073ffffffffffffffffffffffffffffffffffffffff1663a9059cbb86856040518363ffffffff1660e01b815260040161060f9291906115ff565b6020604051808303816000875af115801561062e573d6000803e3d6000fd5b505050506040513d601f19601f820116820180604052508101906106529190611654565b610691576040517f08c379a0000000000000000000000000000000000000000000000000000000008152600401610688906116cd565b60405180910390fd5b5050505050565b60046020528060005260406000206000915054906101000a900460ff1681565b6106c0610a7a565b6106c957600080fd5b60005b815181101561072e576001600460008484815181106106ee576106ed6116ed565b5b6020026020010151815260200190815260200160002060006101000a81548160ff02191690831515021790555080806107269061171c565b9150506106cc565b508051600360008282546107429190611764565b9250508190555050565b600560003373ffffffffffffffffffffffffffffffffffffffff1673ffffffffffffffffffffffffffffffffffffffff16815260200190815260200160002060009054906101000a900460ff166107d8576040517f08c379a00000000000000000000000000000000000000000000000000000000081526004016107cf90611510565b60405180910390fd5b600460008280519060200120815260200190815260200160002060009054906101000a900460ff1661083f576040517f08c379a00000000000000000000000000000000000000000000000000000000081526004016108369061157c565b60405180910390fd5b600460008280519060200120815260200190815260200160002060006101000a81549060ff021916905560016003600082825461087c91906115cb565b92505081905550505050565b610890610a7a565b61089957600080fd5b6001600560008373ffffffffffffffffffffffffffffffffffffffff1673ffffffffffffffffffffffffffffffffffffffff16815260200190815260200160002060006101000a81548160ff02191690831515021790555050565b6108fc610a7a565b61090557600080fd5b600073ffffffffffffffffffffffffffffffffffffffff1660008054906101000a900473ffffffffffffffffffffffffffffffffffffffff1673ffffffffffffffffffffffffffffffffffffffff167f8be0079c531659141344cd1fd0a4f28419497f9722a3daafe3b4186f6b6457e060405160405180910390a360008060006101000a81548173ffffffffffffffffffffffffffffffffffffffff021916908373ffffffffffffffffffffffffffffffffffffffff160217905550565b600180546109d090611493565b80601f01602080910402602001604051908101604052809291908181526020018280546109fc90611493565b8015610a495780601f10610a1e57610100808354040283529160200191610a49565b820191906000526020600020905b815481529060010190602001808311610a2c57829003601f168201915b505050505081565b60008060009054906101000a900473ffffffffffffffffffffffffffffffffffffffff16905090565b60008060009054906101000a900473ffffffffffffffffffffffffffffffffffffffff1673ffffffffffffffffffffffffffffffffffffffff163373ffffffffffffffffffffffffffffffffffffffff1614905090565b6000600460008380519060200120815260200190815260200160002060009054906101000a900460ff169050919050565b600460008280519060200120815260200190815260200160002060006101000a81549060ff0219169055600160036000828254610b3f91906115cb565b9250508190555050565b610b51610a7a565b610b5a57600080fd5b60008290508073ffffffffffffffffffffffffffffffffffffffff1663a9059cbb85846040518363ffffffff1660e01b8152600401610b9a9291906115ff565b6020604051808303816000875af1158015610bb9573d6000803e3d6000fd5b505050506040513d601f19601f82011682018060405250810190610bdd9190611654565b610c1c576040517f08c379a0000000000000000000000000000000000000000000000000000000008152600401610c13906116cd565b60405180910390fd5b50505050565b60056020528060005260406000206000915054906101000a900460ff1681565b610c4a610a7a565b610c5357600080fd5b6000600560008373ffffffffffffffffffffffffffffffffffffffff1673ffffffffffffffffffffffffffffffffffffffff16815260200190815260200160002060006101000a81548160ff02191690831515021790555050565b610cb6610a7a565b610cbf57600080fd5b5050565b60035481565b610cd1610a7a565b610cda57600080fd5b610ce381610ce6565b50565b600073ffffffffffffffffffffffffffffffffffffffff168173ffffffffffffffffffffffffffffffffffffffff1603610d1f57600080fd5b8073ffffffffffffffffffffffffffffffffffffffff1660008054906101000a900473ffffffffffffffffffffffffffffffffffffffff1673ffffffffffffffffffffffffffffffffffffffff167f8be0079c531659141344cd1fd0a4f28419497f9722a3daafe3b4186f6b6457e060405160405180910390a3806000806101000a81548173ffffffffffffffffffffffffffffffffffffffff021916908373ffffffffffffffffffffffffffffffffffffffff16021790555050565b600081519050919050565b600082825260208201905092915050565b60005b83811015610e16578082015181840152602081019050610dfb565b60008484015250505050565b6000601f19601f8301169050919050565b6000610e3e82610ddc565b610e488185610de7565b9350610e58818560208601610df8565b610e6181610e22565b840191505092915050565b60006020820190508181036000830152610e868184610e33565b905092915050565b6000604051905090565b600080fd5b600080fd5b600073ffffffffffffffffffffffffffffffffffffffff82169050919050565b6000610ecd82610ea2565b9050919050565b610edd81610ec2565b8114610ee857600080fd5b50565b600081359050610efa81610ed4565b92915050565b6000819050919050565b610f1381610f00565b8114610f1e57600080fd5b50565b600081359050610f3081610f0a565b92915050565b600080fd5b600080fd5b7f4e487b7100000000000000000000000000000000000000000000000000000000600052604160045260246000fd5b610f7882610e22565b810181811067ffffffffffffffff82111715610f9757610f96610f40565b5b80604052505050565b6000610faa610e8e565b9050610fb68282610f6f565b919050565b600067ffffffffffffffff821115610fd657610fd5610f40565b5b610fdf82610e22565b9050602081019050919050565b82818337600083830152505050565b600061100e61100984610fbb565b610fa0565b90508281526020810184848401111561102a57611029610f3b565b5b611035848285610fec565b509392505050565b600082601f83011261105257611051610f36565b5b8135611062848260208601610ffb565b91505092915050565b6000806000806080858703121561108557611084610e98565b5b600061109387828801610eeb565b94505060206110a487828801610eeb565b93505060406110b587828801610f21565b925050606085013567ffffffffffffffff8111156110d6576110d5610e9d565b5b6110e28782880161103d565b91505092959194509250565b6000819050919050565b611101816110ee565b811461110c57600080fd5b50565b60008135905061111e816110f8565b92915050565b60006020828403121561113a57611139610e98565b5b60006111488482850161110f565b91505092915050565b60008115159050919050565b61116681611151565b82525050565b6000602082019050611181600083018461115d565b92915050565b600067ffffffffffffffff8211156111a2576111a1610f40565b5b602082029050602081019050919050565b600080fd5b60006111cb6111c684611187565b610fa0565b905080838252602082019050602084028301858111156111ee576111ed6111b3565b5b835b818110156112175780611203888261110f565b8452602084019350506020810190506111f0565b5050509392505050565b600082601f83011261123657611235610f36565b5b81356112468482602086016111b8565b91505092915050565b60006020828403121561126557611264610e98565b5b600082013567ffffffffffffffff81111561128357611282610e9d565b5b61128f84828501611221565b91505092915050565b6000806000606084860312156112b1576112b0610e98565b5b60006112bf86828701610eeb565b93505060206112d086828701610f21565b925050604084013567ffffffffffffffff8111156112f1576112f0610e9d565b5b6112fd8682870161103d565b9150509250925092565b60006020828403121561131d5761131c610e98565b5b600061132b84828501610eeb565b91505092915050565b61133d81610ec2565b82525050565b60006020820190506113586000830184611334565b92915050565b60006020828403121561137457611373610e98565b5b600082013567ffffffffffffffff81111561139257611391610e9d565b5b61139e8482850161103d565b91505092915050565b6000806000606084860312156113c0576113bf610e98565b5b60006113ce86828701610eeb565b93505060206113df86828701610eeb565b92505060406113f086828701610f21565b9150509250925092565b6000806040838503121561141157611410610e98565b5b600061141f85828601610eeb565b925050602061143085828601610f21565b9150509250929050565b61144381610f00565b82525050565b600060208201905061145e600083018461143a565b92915050565b7f4e487b7100000000000000000000000000000000000000000000000000000000600052602260045260246000fd5b600060028204905060018216806114ab57607f821691505b6020821081036114be576114bd611464565b5b50919050565b7f6e6f74207472757374656420656e746974790000000000000000000000000000600082015250565b60006114fa601283610de7565b9150611505826114c4565b602082019050919050565b60006020820190508181036000830152611529816114ed565b9050919050565b7f70617373776f7264206973206e6f742076616c69640000000000000000000000600082015250565b6000611566601583610de7565b915061157182611530565b602082019050919050565b6000602082019050818103600083015261159581611559565b9050919050565b7f4e487b7100000000000000000000000000000000000000000000000000000000600052601160045260246000fd5b60006115d682610f00565b91506115e183610f00565b92508282039050818111156115f9576115f861159c565b5b92915050565b60006040820190506116146000830185611334565b611621602083018461143a565b9392505050565b61163181611151565b811461163c57600080fd5b50565b60008151905061164e81611628565b92915050565b60006020828403121561166a57611669610e98565b5b60006116788482850161163f565b91505092915050565b7f70726f626c656d2073656e64696e672045524332300000000000000000000000600082015250565b60006116b7601583610de7565b91506116c282611681565b602082019050919050565b600060208201905081810360008301526116e6816116aa565b9050919050565b7f4e487b7100000000000000000000000000000000000000000000000000000000600052603260045260246000fd5b600061172782610f00565b91507fffffffffffffffffffffffffffffffffffffffffffffffffffffffffffffffff82036117595761175861159c565b5b600182019050919050565b600061176f82610f00565b915061177a83610f00565b92508282019050808211156117925761179161159c565b5b9291505056fea2646970667358221220f7a9bcc62a2ff3a7a001e21505361ffc66d60a968c43d967cdb5baa8a2005cee64736f6c63430008120033",
  "immutableReferences": {},
  "source": "// SPDX-License-Identifier: MIT\npragma solidity ^0.8.18;\n\n// need ERC20 interactor\n// need ERC721 interactor\n// maybe MakerDao too\n\nimport './IERC20.sol';\nimport './Ownable.sol';\n\ncontract User is Ownable {\n\n    string public phoneNumber;\n    string public name;\n    uint256 public totalPasswordsLeft;\n\n    // keeps one time passwords\n    mapping(bytes32 => bool) public passwords;\n\n    mapping(address => bool) public trustedEntities;\n\n  // constructor(string memory _phoneNumber, string memory _name, address _trustedEntity, bytes32[] memory _hashedPasswords) public {\n  //     phoneNumber = _phoneNumber;\n  //     name = _name;\n  //     addPasswords(_hashedPasswords);\n  //     addTrustedEntity(_trustedEntity);\n  // }\n\n  function addPasswords(bytes32[] memory _hashedPasswords) public onlyOwner {\n    for(uint256 i = 0; i < _hashedPasswords.length; i++) {\n      passwords[_hashedPasswords[i]] = true;\n    }\n    totalPasswordsLeft += _hashedPasswords.length;\n  }\n\n  function isPasswordValid( bytes memory _password) public view returns(bool) {\n    return passwords[keccak256(_password)];\n  }\n\n  function transferEth(address _to, uint256 _amount) public payable onlyOwner {\n      // address(uint160(_to)).transfer(_amount);\n  }\n\n  function transferERC20(address _to, address _erc20Address, uint256 _amount) public onlyOwner {\n      IERC20 erc20 = IERC20(_erc20Address);\n      require(erc20.transfer(_to, _amount), \"problem sending ERC20\");\n  }\n\n  function addTrustedEntity(address _trustedEntity) public onlyOwner {\n      trustedEntities[_trustedEntity] = true;\n  }\n\n\n  function removeTrustedEntity(address _trustedEntity) public onlyOwner {\n      trustedEntities[_trustedEntity] = false;\n  }\n\n  function trustedEntityTransferEth(address _to, uint256 _amount, bytes memory _password) public payable  {\n      require(trustedEntities[msg.sender], \"not trusted entity\");\n      require(passwords[keccak256(_password)], \"password is not valid\");\n      // delete the password\n      delete passwords[keccak256(_password)];\n      totalPasswordsLeft -= 1;\n      // address(uint160(_to)).transfer(_amount);\n  }\n\n  function retirePassword(bytes memory _password) public {\n    delete passwords[keccak256(_password)];\n    totalPasswordsLeft -= 1;\n  }\n\n  function trustedEntityTransferERC20(address _to, address _erc20Address, uint256 _amount, bytes memory _password) public  {\n      require(trustedEntities[msg.sender], \"not trusted entity\");\n      require(passwords[keccak256(_password)], \"password is not valid\");\n      // delete the password\n      delete passwords[keccak256(_password)];\n      totalPasswordsLeft -= 1;\n\n      IERC20 erc20 = IERC20(_erc20Address);\n      require(erc20.transfer(_to, _amount), \"problem sending ERC20\");\n  }\n\n}\n",
  "sourcePath": "C:\\Users\\hp\\truffle_master\\contracts\\User.sol",
  "compiler": {
    "name": "solc",
    "version": "0.8.18+commit.87f61d96.Emscripten.clang"
  },
  "schemaVersion": "3.4.12",
  "updatedAt": "2023-05-09T22:50:22.691Z",
  "networkType": "ethereum",
  "devdoc": {
    "kind": "dev",
    "methods": {
      "isOwner()": {
        "returns": {
          "_0": "true if `msg.sender` is the owner of the contract."
        }
      },
      "owner()": {
        "returns": {
          "_0": "the address of the owner."
        }
      },
      "renounceOwnership()": {
        "details": "Allows the current owner to relinquish control of the contract. It will not be possible to call the functions with the `onlyOwner` modifier anymore."
      },
      "transferOwnership(address)": {
        "details": "Allows the current owner to transfer control of the contract to a newOwner.",
        "params": {
          "newOwner": "The address to transfer ownership to."
        }
      }
    },
    "version": 1
  },
  "userdoc": {
    "kind": "user",
    "methods": {
      "renounceOwnership()": {
        "notice": "Renouncing ownership will leave the contract without an owner, thereby removing any functionality that is only available to the owner."
      }
    },
    "version": 1
  }
}